{
    "contractName": "DirectoryWatcherContract",
    "abi": [
        {
            "inputs": [],
            "stateMutability": "nonpayable",
            "type": "constructor"
        },
        {
            "inputs": [],
            "name": "FetchListCounts",
            "outputs": [
                {
                    "internalType": "uint256",
                    "name": "tamperedFilesCount",
                    "type": "uint256"
                },
                {
                    "internalType": "uint256",
                    "name": "tamperedDirectoriesCount",
                    "type": "uint256"
                }
            ],
            "stateMutability": "view",
            "type": "function"
        },
        {
            "inputs": [
                {
                    "internalType": "uint256",
                    "name": "index",
                    "type": "uint256"
                }
            ],
            "name": "FetchTamperedDirectories",
            "outputs": [
                {
                    "internalType": "string",
                    "name": "directoryName",
                    "type": "string"
                },
                {
                    "internalType": "string",
                    "name": "directoryPath",
                    "type": "string"
                },
                {
                    "internalType": "string",
                    "name": "directoryChange",
                    "type": "string"
                },
                {
                    "internalType": "address",
                    "name": "modifierAddress",
                    "type": "address"
                }
            ],
            "stateMutability": "view",
            "type": "function"
        },
        {
            "inputs": [
                {
                    "internalType": "uint256",
                    "name": "index",
                    "type": "uint256"
                }
            ],
            "name": "FetchTamperedFiles",
            "outputs": [
                {
                    "internalType": "string",
                    "name": "fileName",
                    "type": "string"
                },
                {
                    "internalType": "string",
                    "name": "parentDirectory",
                    "type": "string"
                },
                {
                    "internalType": "string",
                    "name": "directoryPath",
                    "type": "string"
                },
                {
                    "internalType": "string",
                    "name": "oldHash",
                    "type": "string"
                },
                {
                    "internalType": "string",
                    "name": "newHash",
                    "type": "string"
                },
                {
                    "internalType": "string",
                    "name": "fileChange",
                    "type": "string"
                },
                {
                    "internalType": "address",
                    "name": "modifierAddress",
                    "type": "address"
                }
            ],
            "stateMutability": "view",
            "type": "function"
        },
        {
            "inputs": [
                {
                    "internalType": "string",
                    "name": "directoryName",
                    "type": "string"
                },
                {
                    "internalType": "string",
                    "name": "directoryPath",
                    "type": "string"
                },
                {
                    "internalType": "string",
                    "name": "directoryChange",
                    "type": "string"
                }
            ],
            "name": "InsertTamperedDirectory",
            "outputs": [],
            "stateMutability": "nonpayable",
            "type": "function"
        },
        {
            "inputs": [
                {
                    "internalType": "string",
                    "name": "fileName",
                    "type": "string"
                },
                {
                    "internalType": "string",
                    "name": "parentDirectory",
                    "type": "string"
                },
                {
                    "internalType": "string",
                    "name": "directoryPath",
                    "type": "string"
                },
                {
                    "internalType": "string",
                    "name": "oldHash",
                    "type": "string"
                },
                {
                    "internalType": "string",
                    "name": "newHash",
                    "type": "string"
                },
                {
                    "internalType": "string",
                    "name": "fileChange",
                    "type": "string"
                }
            ],
            "name": "InsertTamperedFile",
            "outputs": [],
            "stateMutability": "nonpayable",
            "type": "function"
        },
        {
            "inputs": [],
            "name": "TamperedDirectoriesCount",
            "outputs": [
                {
                    "internalType": "uint256",
                    "name": "",
                    "type": "uint256"
                }
            ],
            "stateMutability": "view",
            "type": "function"
        },
        {
            "inputs": [
                {
                    "internalType": "uint256",
                    "name": "",
                    "type": "uint256"
                }
            ],
            "name": "TamperedDirectoryList",
            "outputs": [
                {
                    "internalType": "string",
                    "name": "_directoryName",
                    "type": "string"
                },
                {
                    "internalType": "string",
                    "name": "_directoryPath",
                    "type": "string"
                },
                {
                    "internalType": "string",
                    "name": "_directoryChange",
                    "type": "string"
                },
                {
                    "internalType": "address",
                    "name": "_modifierAddress",
                    "type": "address"
                }
            ],
            "stateMutability": "view",
            "type": "function"
        },
        {
            "inputs": [
                {
                    "internalType": "uint256",
                    "name": "",
                    "type": "uint256"
                }
            ],
            "name": "TamperedFileList",
            "outputs": [
                {
                    "internalType": "string",
                    "name": "_fileName",
                    "type": "string"
                },
                {
                    "internalType": "string",
                    "name": "_parentDirectory",
                    "type": "string"
                },
                {
                    "internalType": "string",
                    "name": "_directoryPath",
                    "type": "string"
                },
                {
                    "internalType": "string",
                    "name": "_oldHash",
                    "type": "string"
                },
                {
                    "internalType": "string",
                    "name": "_newHash",
                    "type": "string"
                },
                {
                    "internalType": "string",
                    "name": "_fileChange",
                    "type": "string"
                },
                {
                    "internalType": "address",
                    "name": "_modifierAddress",
                    "type": "address"
                }
            ],
            "stateMutability": "view",
            "type": "function"
        },
        {
            "inputs": [],
            "name": "TamperedFilesCount",
            "outputs": [
                {
                    "internalType": "uint256",
                    "name": "",
                    "type": "uint256"
                }
            ],
            "stateMutability": "view",
            "type": "function"
        }
    ],
    "bytecode": "608060405234801561001057600080fd5b50600080546001600160a01b03191633179055611938806100326000396000f3fe608060405234801561001057600080fd5b50600436106100935760003560e01c80639da39d55116100665780639da39d551461069c578063cdba69221461080d578063d6533abd1461082a578063dfe6c394146109d8578063edf0b377146109f957610093565b80630955e6941461009857806378a74f4e1461033b5780638bc53a571461067a5780639c23122814610694575b600080fd5b6100b5600480360360208110156100ae57600080fd5b5035610a16565b60405180806020018060200180602001806020018060200180602001886001600160a01b0316815260200187810387528e818151815260200191508051906020019080838360005b838110156101155781810151838201526020016100fd565b50505050905090810190601f1680156101425780820380516001836020036101000a031916815260200191505b5087810386528d5181528d516020918201918f019080838360005b8381101561017557818101518382015260200161015d565b50505050905090810190601f1680156101a25780820380516001836020036101000a031916815260200191505b5087810385528c5181528c516020918201918e019080838360005b838110156101d55781810151838201526020016101bd565b50505050905090810190601f1680156102025780820380516001836020036101000a031916815260200191505b5087810384528b5181528b516020918201918d019080838360005b8381101561023557818101518382015260200161021d565b50505050905090810190601f1680156102625780820380516001836020036101000a031916815260200191505b5087810383528a5181528a516020918201918c019080838360005b8381101561029557818101518382015260200161027d565b50505050905090810190601f1680156102c25780820380516001836020036101000a031916815260200191505b5087810382528951815289516020918201918b019080838360005b838110156102f55781810151838201526020016102dd565b50505050905090810190601f1680156103225780820380516001836020036101000a031916815260200191505b509d505050505050505050505050505060405180910390f35b610678600480360360c081101561035157600080fd5b810190602081018135600160201b81111561036b57600080fd5b82018360208201111561037d57600080fd5b803590602001918460018302840111600160201b8311171561039e57600080fd5b91908080601f0160208091040260200160405190810160405280939291908181526020018383808284376000920191909152509295949360208101935035915050600160201b8111156103f057600080fd5b82018360208201111561040257600080fd5b803590602001918460018302840111600160201b8311171561042357600080fd5b91908080601f0160208091040260200160405190810160405280939291908181526020018383808284376000920191909152509295949360208101935035915050600160201b81111561047557600080fd5b82018360208201111561048757600080fd5b803590602001918460018302840111600160201b831117156104a857600080fd5b91908080601f0160208091040260200160405190810160405280939291908181526020018383808284376000920191909152509295949360208101935035915050600160201b8111156104fa57600080fd5b82018360208201111561050c57600080fd5b803590602001918460018302840111600160201b8311171561052d57600080fd5b91908080601f0160208091040260200160405190810160405280939291908181526020018383808284376000920191909152509295949360208101935035915050600160201b81111561057f57600080fd5b82018360208201111561059157600080fd5b803590602001918460018302840111600160201b831117156105b257600080fd5b91908080601f0160208091040260200160405190810160405280939291908181526020018383808284376000920191909152509295949360208101935035915050600160201b81111561060457600080fd5b82018360208201111561061657600080fd5b803590602001918460018302840111600160201b8311171561063757600080fd5b91908080601f016020809104026020016040519081016040528093929190818152602001838380828437600092019190915250929550610db5945050505050565b005b610682610efc565b60408051918252519081900360200190f35b610682610f02565b6106b9600480360360208110156106b257600080fd5b5035610f08565b60405180806020018060200180602001856001600160a01b03168152602001848103845288818151815260200191508051906020019080838360005b8381101561070d5781810151838201526020016106f5565b50505050905090810190601f16801561073a5780820380516001836020036101000a031916815260200191505b50848103835287518152875160209182019189019080838360005b8381101561076d578181015183820152602001610755565b50505050905090810190601f16801561079a5780820380516001836020036101000a031916815260200191505b50848103825286518152865160209182019188019080838360005b838110156107cd5781810151838201526020016107b5565b50505050905090810190601f1680156107fa5780820380516001836020036101000a031916815260200191505b5097505050505050505060405180910390f35b6100b56004803603602081101561082357600080fd5b50356110f7565b6106786004803603606081101561084057600080fd5b810190602081018135600160201b81111561085a57600080fd5b82018360208201111561086c57600080fd5b803590602001918460018302840111600160201b8311171561088d57600080fd5b91908080601f0160208091040260200160405190810160405280939291908181526020018383808284376000920191909152509295949360208101935035915050600160201b8111156108df57600080fd5b8201836020820111156108f157600080fd5b803590602001918460018302840111600160201b8311171561091257600080fd5b91908080601f0160208091040260200160405190810160405280939291908181526020018383808284376000920191909152509295949360208101935035915050600160201b81111561096457600080fd5b82018360208201111561097657600080fd5b803590602001918460018302840111600160201b8311171561099757600080fd5b91908080601f016020809104026020016040519081016040528093929190818152602001838380828437600092019190915250929550611543945050505050565b6109e061161f565b6040805192835260208301919091528051918290030190f35b6106b960048036036020811015610a0f57600080fd5b5035611629565b60018181548110610a2357fe5b60009182526020918290206007919091020180546040805160026001841615610100026000190190931692909204601f810185900485028301850190915280825291935091839190830182828015610abc5780601f10610a9157610100808354040283529160200191610abc565b820191906000526020600020905b815481529060010190602001808311610a9f57829003601f168201915b505050505090806001018054600181600116156101000203166002900480601f016020809104026020016040519081016040528092919081815260200182805460018160011615610100020316600290048015610b5a5780601f10610b2f57610100808354040283529160200191610b5a565b820191906000526020600020905b815481529060010190602001808311610b3d57829003601f168201915b50505060028085018054604080516020601f6000196101006001871615020190941695909504928301859004850281018501909152818152959695945090925090830182828015610bec5780601f10610bc157610100808354040283529160200191610bec565b820191906000526020600020905b815481529060010190602001808311610bcf57829003601f168201915b5050505060038301805460408051602060026001851615610100026000190190941693909304601f8101849004840282018401909252818152949594935090830182828015610c7c5780601f10610c5157610100808354040283529160200191610c7c565b820191906000526020600020905b815481529060010190602001808311610c5f57829003601f168201915b5050505060048301805460408051602060026001851615610100026000190190941693909304601f8101849004840282018401909252818152949594935090830182828015610d0c5780601f10610ce157610100808354040283529160200191610d0c565b820191906000526020600020905b815481529060010190602001808311610cef57829003601f168201915b5050505060058301805460408051602060026001851615610100026000190190941693909304601f8101849004840282018401909252818152949594935090830182828015610d9c5780601f10610d7157610100808354040283529160200191610d9c565b820191906000526020600020905b815481529060010190602001808311610d7f57829003601f168201915b505050600690930154919250506001600160a01b031687565b6040805160e0810182528781526020808201889052918101869052606081018590526080810184905260a081018390523360c0820181905260018054808201825560009190915282518051929460079092027fb10e2d527612073b26eecdfd717e6a320cf44b4afac2b0732d9fcbe2b7fa0cf60192610e37928492019061186f565b506020828101518051610e50926001850192019061186f565b5060408201518051610e6c91600284019160209091019061186f565b5060608201518051610e8891600384019160209091019061186f565b5060808201518051610ea491600484019160209091019061186f565b5060a08201518051610ec091600584019160209091019061186f565b5060c09190910151600690910180546001600160a01b0319166001600160a01b0390921691909117905550506003805460010190555050505050565b60045481565b60035481565b60028181548110610f1557fe5b60009182526020918290206004919091020180546040805160026001841615610100026000190190931692909204601f810185900485028301850190915280825291935091839190830182828015610fae5780601f10610f8357610100808354040283529160200191610fae565b820191906000526020600020905b815481529060010190602001808311610f9157829003601f168201915b505050505090806001018054600181600116156101000203166002900480601f01602080910402602001604051908101604052809291908181526020018280546001816001161561010002031660029004801561104c5780601f106110215761010080835404028352916020019161104c565b820191906000526020600020905b81548152906001019060200180831161102f57829003601f168201915b50505060028085018054604080516020601f60001961010060018716150201909416959095049283018590048502810185019091528181529596959450909250908301828280156110de5780601f106110b3576101008083540402835291602001916110de565b820191906000526020600020905b8154815290600101906020018083116110c157829003601f168201915b505050600390930154919250506001600160a01b031684565b60608060608060608060006001888154811061110f57fe5b6000918252602091829020600790910201805460408051601f60026000196101006001871615020190941693909304928301859004850281018501909152818152928301828280156111a25780601f10611177576101008083540402835291602001916111a2565b820191906000526020600020905b81548152906001019060200180831161118557829003601f168201915b50505050509650600188815481106111b657fe5b90600052602060002090600702016001018054600181600116156101000203166002900480601f01602080910402602001604051908101604052809291908181526020018280546001816001161561010002031660029004801561125b5780601f106112305761010080835404028352916020019161125b565b820191906000526020600020905b81548152906001019060200180831161123e57829003601f168201915b505050505095506001888154811061126f57fe5b600091825260209182902060026007909202018101805460408051601f6000196101006001861615020190931694909404918201859004850284018501905280835291929091908301828280156113075780601f106112dc57610100808354040283529160200191611307565b820191906000526020600020905b8154815290600101906020018083116112ea57829003601f168201915b505050505094506001888154811061131b57fe5b6000918252602091829020600360079092020101805460408051601f60026000196101006001871615020190941693909304928301859004850281018501909152818152928301828280156113b15780601f10611386576101008083540402835291602001916113b1565b820191906000526020600020905b81548152906001019060200180831161139457829003601f168201915b50505050509350600188815481106113c557fe5b6000918252602091829020600460079092020101805460408051601f600260001961010060018716150201909416939093049283018590048502810185019091528181529283018282801561145b5780601f106114305761010080835404028352916020019161145b565b820191906000526020600020905b81548152906001019060200180831161143e57829003601f168201915b505050505092506001888154811061146f57fe5b6000918252602091829020600560079092020101805460408051601f60026000196101006001871615020190941693909304928301859004850281018501909152818152928301828280156115055780601f106114da57610100808354040283529160200191611505565b820191906000526020600020905b8154815290600101906020018083116114e857829003601f168201915b505050505091506001888154811061151957fe5b60009182526020909120600660079092020101546001600160a01b03169050919395979092949650565b60408051608081018252848152602080820185905291810183905233606082018190526002805460018101825560009190915282518051929460049092027f405787fa12a823e0f2b7631cc41b3ba8828b3321ca811111fa75cd3aa3bb5ace01926115b1928492019061186f565b5060208281015180516115ca926001850192019061186f565b50604082015180516115e691600284019160209091019061186f565b5060609190910151600390910180546001600160a01b0319166001600160a01b0390921691909117905550506004805460010190555050565b6003546004549091565b606080606060006002858154811061163d57fe5b6000918252602091829020600490910201805460408051601f60026000196101006001871615020190941693909304928301859004850281018501909152818152928301828280156116d05780601f106116a5576101008083540402835291602001916116d0565b820191906000526020600020905b8154815290600101906020018083116116b357829003601f168201915b50505050509350600285815481106116e457fe5b90600052602060002090600402016001018054600181600116156101000203166002900480601f0160208091040260200160405190810160405280929190818152602001828054600181600116156101000203166002900480156117895780601f1061175e57610100808354040283529160200191611789565b820191906000526020600020905b81548152906001019060200180831161176c57829003601f168201915b505050505092506002858154811061179d57fe5b600091825260209182902060026004909202018101805460408051601f6000196101006001861615020190931694909404918201859004850284018501905280835291929091908301828280156118355780601f1061180a57610100808354040283529160200191611835565b820191906000526020600020905b81548152906001019060200180831161181857829003601f168201915b505050505091506002858154811061184957fe5b60009182526020909120600360049092020101546001600160a01b031690509193509193565b828054600181600116156101000203166002900490600052602060002090601f016020900481019282601f106118b057805160ff19168380011785556118dd565b828001600101855582156118dd579182015b828111156118dd5782518255916020019190600101906118c2565b506118e99291506118ed565b5090565b5b808211156118e957600081556001016118ee56fea26469706673582212209095fe1dd64757de6fde9a721b690db30abfb6367f25c946111c13f120f94ebc64736f6c63430007000033",
    "sourcePath": "d:/GitHub/DirectoryWatcher/DirectoryWatcher/MT.DirectoryWatcher.Blockchain/Contracts/DirectoryWatcher.sol",
    "compiler": {
        "name": "solc",
        "version": "0.7.0+commit.9e61f92b"
    },
    "functionHashes": {
        "FetchListCounts()": "dfe6c394",
        "FetchTamperedDirectories(uint256)": "edf0b377",
        "FetchTamperedFiles(uint256)": "cdba6922",
        "InsertTamperedDirectory(string,string,string)": "d6533abd",
        "InsertTamperedFile(string,string,string,string,string,string)": "78a74f4e",
        "TamperedDirectoriesCount()": "8bc53a57",
        "TamperedDirectoryList(uint256)": "9da39d55",
        "TamperedFileList(uint256)": "0955e694",
        "TamperedFilesCount()": "9c231228"
    },
    "gasEstimates": {
        "creation": {
            "codeDepositCost": "1291200",
            "executionCost": "22177",
            "totalCost": "1313377"
        },
        "external": {
            "FetchListCounts()": "1894",
            "FetchTamperedDirectories(uint256)": "infinite",
            "FetchTamperedFiles(uint256)": "infinite",
            "InsertTamperedDirectory(string,string,string)": "infinite",
            "InsertTamperedFile(string,string,string,string,string,string)": "infinite",
            "TamperedDirectoriesCount()": "1043",
            "TamperedDirectoryList(uint256)": "infinite",
            "TamperedFileList(uint256)": "infinite",
            "TamperedFilesCount()": "1065"
        }
    }
}